:020000040800F2
:1000000098050020450100085D1900085D150008ED
:1000100059190008C30C000827260008000000003A
:10002000000000000000000000000000492000085F
:10003000AD0F000800000000F91D0008E1210008D4
:100040005F0100085F0100085F0100085F01000810
:100050005F0100085F0100085F0100085F01000800
:100060005F0100085F0100085F0100085F010008F0
:100070005F0100085F0100085F0100085F010008E0
:100080005F0100085F0100085F0100085F010008D0
:100090005F0100085F0100085F0100085F010008C0
:1000A0005F0100085F0100085F0100085F010008B0
:1000B0005F0100085F010008452200085F01000899
:1000C0005F0100085F0100085F0100085F01000890
:1000D0005F010008312500085F0100085F0100088A
:1000E0005F0100085F0100085F0100085F01000870
:1000F0005F0100085F0100085F0100085F01000860
:100100005F0100085F0100085F0100085F0100084F
:100110005F0100085F0100085F0100085F0100083F
:100120005F0100085F0100085F0100085F0100082F
:10013000DFF80CD000F056FC00480047A130000862
:10014000980500200648804706480047FEE7FEE77E
:10015000FEE7FEE7FEE7FEE7FEE7FEE7FEE7FEE777
:10016000E52100083101000840EA01039B0703D0A4
:1001700009E008C9121F08C0042AFAD203E011F8E6
:10018000013B00F8013B521EF9D27047D2B201E0A8
:1001900000F8012B491EFBD270470022F6E710B58C
:1001A00013460A4604461946FFF7F0FF204610BDE5
:1001B000F0B480EA0102D40F4200B2EB410F02D248
:1001C0000246084611464A0042D0C30DDDB2C1F3D3
:1001D000C752AD1A202D35DAC1F3160141F40002E1
:1001E00004B15242C5F1200602FA06F12A41104438
:1001F000B3EBD05F23D0C4B1012DA0EBC35009DC19
:10020000F0BC4FF0004202EAC352DBB200F500003E
:1002100000F045BB400000F1807000EBC350A0F13E
:10022000807040EAD170490009E0490841EAC07194
:10023000A0EBC35000F50000400800EBC350F0BC39
:1002400000F024BB6142012202EB4101001BF6E7F2
:10025000F0BC704781F00041AAE780F00040A7E7BA
:1002600080EA010210B502F00043400022D04A00AB
:100270001FD0010E01EB1261C0F35600C2F356020B
:1002800040F4000042F40002A0FB022000047F3989
:10029000140400D0401C50EA124001D44000491E12
:1002A000C2B20C0604EBD010401C4008802A02D0D9
:1002B00003E0002010BD20F00100002900DA00203A
:1002C000184310BD30B480EA010202F0004530F05E
:1002D000004221F0004013D090B1C30DD40DC2F301
:1002E0001601C0F31600E41A41F4000140F40002C4
:1002F0007D34914201D3641C00E04900002C02DAF5
:1003000030BC002070474FF400000023914201D31D
:10031000891A034340084FEA4101F7D151B1914294
:1003200002D14FF0004105E002D24FF0010101E09F
:100330006FF0010103EBC450284430BC00F0A6BAB2
:100340002DE9FE4F804681EA0300C00F0C46009065
:1003500021F0004123F00045B8EB0200A94105D28D
:100360004046214690461C460B46024623F000407C
:10037000104347D0270DC7F30A00C3F30A51029078
:10038000401A019040286BDAC3F3130040F4801B3D
:100390000098924620B10023D2EB030A63EB0B0BCB
:1003A00001985946C0F14002504600F03EFA064618
:1003B0000D4650465946019A00F056FA10EB0800D7
:1003C0006141002487EA115284EAE7731A4340D05E
:1003D000009A62B3019A012A4FEA075215DC001B0A
:1003E00061EB02014FF0004202EA0752CDE9004200
:1003F000001C41F5801132462B4600F08DFA03B007
:10040000BDE8F08F40462146F9E7001B61EB020191
:10041000001C41F5801300185B412018A2F500175D
:1004200047EB030140EAD570B6196D4111E06D0844
:100430004FEA360645EAC0754FEA0752001B61EBEA
:100440000201001C41F5801149084FEA30000019F3
:10045000514132462B4603B0BDE8F04F00F04DBA93
:100460000098012240000023D0EB020263EBE0730E
:10047000009821464FEAE074B8EB000061EB0401FC
:10048000E9E783F000435BE781F0004158E72DE99D
:10049000FE4F81EA030404F0004421F0004100947F
:1004A0004FF0000B23F0004350EA01045ED052EA03
:1004B00003045BD0C3F30A54C1F30A552C44A4F2DD
:1004C000F3340194A0FB0254C1F3130141F48011F1
:1004D000C3F3130343F4801301FB024400FB034EF8
:1004E000840A970A44EA815447EA8357A4FB0768C1
:1004F00002958D0A05FB07854FEA932C04FB0C54EB
:100500002705029D4FEA065847EA1637B5EB08055E
:100510006EEB070C870E920E47EA811742EA8312B0
:10052000A7FB0201B6EB0B0164EB00042B0D43EAC1
:100530000C335E1844EB1C50DA465146E7FB0201CF
:10054000C5F313044FEA0B3343EA14534FEA043262
:10055000019C43EA0603A4F10C040294009CCDE93B
:1005600000B400F0D9F903B0BDE8F08F00200146D7
:10057000F9E72DE9F04D81EA030404F0004B21F086
:10058000004514464FF0000A23F0004150EA0502EE
:1005900020D054EA01021DD0C5F30A570246C5F324
:1005A0001303C1F31300C1F30A5640F4801543F45A
:1005B0008013A7EB0608101BD64608F2FD3873EB34
:1005C000050002D308F1010801E092185B41B8F17F
:1005D000000F03DA00200146BDE8F08D00204FF443
:1005E0008011064684460EE0171B73EB050705D302
:1005F000121B63EB050306434CEA010C49084FEA62
:10060000300092185B4150EA0107EDD152EA030035
:1006100012D082EA040083EA0501084305D0101BCA
:10062000AB4106D20122002306E000224FF0004336
:1006300002E06FF0010253101AEB06004CEB085178
:1006400010EB0A0041EB0B01BDE8F04D00F055B98D
:10065000C10F80EAE0700844CA079623002100F029
:100660001EB996230022114600F019B90EB5C10F2C
:1006700080EAE0700844CA07002140F233438DE865
:100680000E000A460B4600F047F903B000BD0EB558
:1006900040F2334102910021CDE900110A460B4698
:1006A00000F03AF903B000BD20F00040C10DC0F3E6
:1006B000160040F400007F2901DA002070479629D7
:1006C00003DCC1F19601C8407047963988407047F5
:1006D00070B5C1F30A5201F000450024C1F31301C3
:1006E00040F2FF3341F480119A4201DA002070BDDC
:1006F00040F233439A42A2F2334203DC524200F00A
:10070000A3F800E090402C43F1D0404270BD00F0CF
:10071000004230F000400AD0C10D01F56071C0F315
:10072000160042EA0151C2084007114370470020F9
:100730000146704730B5041E71F1000404DB4FF030
:100740000044404264EB0101141E73F1000405DB18
:100750001C464FF00043524263EB0403994208BF2A
:10076000904230BD01F0004330B421F0004150EA26
:10077000010206D00A0DA2F56072C1F31301002A2E
:1007800002DC30BC00207047440F44EAC104C100C1
:10079000E01830BC00EBC25000F078B830B50B4622
:1007A000014600202022012409E021FA02F59D42A1
:1007B00005D303FA02F5491B04FA02F52844151E75
:1007C000A2F10102F1DC30BD2DE9F05F0546002009
:1007D00092469B4688460646814640241BE02846B2
:1007E00041464746224600F02FF853465A46C01A63
:1007F000914110D311461846224600F016F82D1AE2
:1008000067EB01084F4622460120002100F00DF859
:1008100017EB00094E41201EA4F10104DFDC48461D
:1008200031462A464346BDE8F09F202A04DB203AA1
:1008300000FA02F1002070479140C2F1200320FA33
:1008400003F3194390407047202A04DB203A21FA31
:1008500002F00021704721FA02F3D040C2F12002D9
:100860009140084319467047202A06DBCB17203AEF
:1008700041FA02F043EAE07306E041FA02F3D040A5
:10088000C2F1200291400843194670470029A8BFD1
:100890007047401C490008BF20F00100704710B4A9
:1008A000B0FA80FC00FA0CF050EA010404BF10BC5E
:1008B000704749B1CCF1200421FA04F411FA0CF18B
:1008C00018BF012121430843A3EB0C01CB1D4FEAC4
:1008D00000614FEA102042BF002010BC704700EBBF
:1008E000C35010440029A4BF10BC7047401C4900ED
:1008F00008BF20F0010010BC704710B5141E73F142
:10090000000408DA401C41F1000192185B411A43CF
:1009100001D120F0010010BD2DE9F04D92469B461B
:1009200011B1B1FA81F202E0B0FA80F220329046C1
:10093000FFF77BFF04460F4640EA0A0041EA0B013D
:1009400053465A46084313D0114653EA010019D0C2
:10095000C8F140025046FFF777FF05460E46504665
:1009600059464246FFF761FF084305D0012004E0E5
:1009700020463946BDE8F08D0020054346EAE07682
:100980002C4337430A986305E40AA0EB08000022D1
:10099000FD0A44EA47540A3002D500200146E9E73F
:1009A000010510196941DDE9084500196941BDE8F3
:1009B000F04DA2E7C1F30A52C1F3130140F2FF3335
:1009C00041F480119A4202DA00200146704740F259
:1009D00033439A42A2F2334202DC5242FFF734BF61
:1009E000FFF723BF064C074D06E0E06840F0010327
:1009F00094E8070098471034AC42F6D3FFF79CFB0D
:100A0000E03B0008003C000821B1826842F001028E
:100A1000826003E0826822F0010282607047000079
:100A200000B591B00121480201F0E8FA012104204B
:100A300001F0E4FA0121084601F0C0FA4FF4004049
:100A400001F0B0FA00208DF84300F820ADF8400026
:100A500003208DF8420010A9394800F0F0FB05236F
:100A600001220321374800F0BBF8052302220421AC
:100A7000344800F0B5F8052303221946314800F048
:100A8000AFF80523042206212E4800F0A9F805231B
:100A90001A4607212B4800F0A3F800200B900E9077
:100AA0004FF460200D9001208DF831008DF830005A
:100AB00005208DF83C000BA9224800F069F8214878
:100AC0004C30009080150690002004901E48019044
:100AD0004FF4806007908020059000200290052050
:100AE00003902020089000200A904FF48050099035
:100AF0006946164800F0F3F80121144800F0E3F8C5
:100B00000121104800F024F801210E48FFF77CFF76
:100B10000C4800F0C1F800BF0A4800F02EF8012888
:100B2000FAD0084800F0C8F800BF064800F01BF8EB
:100B30000128FAD00121034800F0B3F811B000BD3C
:100B40000008014000240140480000200800024045
:100B500021B1826842F48072826003E0826822F4EC
:100B6000807282607047014600208A6802F00402A9
:100B70000AB1012000E000207047014600208A6889
:100B800002F008020AB1012000E0002070470000D6
:100B900030B502460020002350680F4C20400D79EC
:100BA0000C6844EA05242043506090680B4C2040B8
:100BB000D1E902542C434D7944EA45042043906026
:100BC000D06A20F470000C7C641EE4B2234340EA37
:100BD0000350D06230BD0000FFFEF0FFFDF7F1FFD3
:100BE000F0B504460D4600200021092D11DDE06816
:100BF000A5F10A0606EB4607072606FA07F1884321
:100C0000A5F10A0606EB460603FA06F10843E06082
:100C10000CE0206905EB4507072606FA07F1884333
:100C200005EB450603FA06F108432061072A0FDAAF
:100C3000606B561E06EB86071F2606FA07F18843EF
:100C4000561E06EB860605FA06F10843606322E0AD
:100C50000D2A0FDA206BD61F06EB86071F2606FA31
:100C600007F18843D61F06EB860605FA06F108430E
:100C7000206310E0E06AA2F10D0606EB86071F264E
:100C800006FA07F18843A2F10D0606EB860605FA7F
:100C900006F10843E062F0BD816841F0080181601F
:100CA000704721B1826842F4A002826003E082684A
:100CB00022F4A00282607047816841F004018160E3
:100CC000704700BFFEE721B1026842F001020260F6
:100CD00004E002684FF6FE731A400260704710B5D8
:100CE0000022026847F6F0739A430C6A8B6823432C
:100CF0000C6923434C6923438C692343CC69234308
:100D00004C6A23438C6A23431A430260CB684360D6
:100D10000B6883604B68C36010BD000010B50024F1
:100D20001548006820F00F00134908600846006865
:100D300040F00800086004E0601CC4B2012002F02A
:100D400089F90E48006808B1C82CF5DBC82C01DB16
:100D5000012010BD002404E0601CC4B2012002F098
:100D600079F90648006808B9F02CF5DBF02C01DBB6
:100D70000120EEE70020ECE70408014020012142B9
:100D80002DE9F84F00F0CCF800F0A8F8FFF7C6FF07
:100D9000CC2000F0D1F8BE2000F0CEF800F08CF8A6
:100DA000834600F089F80446072C08DDE043C4B20E
:100DB0006FEA0B0000F0FF0B4FF0000A01E04FF06C
:100DC000010AA1464FEA09200FFA80F909EB0B004E
:100DD0000FFA80F94846FFF73BFC0090FFF797FCBD
:100DE00007460022084BFFF752FB0546FFF770FC51
:100DF0000FFA80F9BAF1000F02D04846BDE8F88F2B
:100E0000C9F1000000B2F9E70000E43F08B5012194
:100E1000042001F0F3F84FF48070ADF800001020CA
:100E20008DF8030003208DF802006946064800F0A3
:100E300006FA4FF48071044800F0DFFA00F04EF833
:100E4000FFF76CFF08BD00000008014010B517480F
:100E5000006820F00F00154908600846006840F05F
:100E600003000860002012490860022002F0F2F836
:100E700001201049C1F8A0010C48006820F00F00C3
:100E80000A4908600846006840F0080008600C2025
:100E900002F0E0F806488038006808B1012400E05C
:100EA0000024322002F0D6F8204610BD040801408C
:100EB000A00121420000214270B50026012508E072
:100EC000FFF7C4FF0446E00140EA6600C6B2681CB2
:100ED000C5B2082DF4DD304670BD000010B50D48D8
:100EE000006820F00F000B4908600846006840F0D9
:100EF0000300086000200849086040F2EE2002F07C
:100F0000A9F801200549C1F8A0010F2002F0A2F8BC
:100F100010BD000004080140A00121420000214250
:100F200010B5FFF7DBFFFFF7F9FECC2000F004F867
:100F3000442000F001F810BD70B504461848006860
:100F400020F00F00164908600846006840F00300D2
:100F50000860012520E004F0010664106EB1002055
:100F600010490860022002F075F801200E49C1F80E
:100F7000A0013C2002F06EF80CE000200949086056
:100F80003C2002F067F801200749C1F8A0010220C7
:100F900002F060F8681CC5B2082DDCDD70BD0000F1
:100FA00004080140A00121420000214270470000D6
:100FB00008B50121082001F021F84FF48060ADF858
:100FC000000010208DF8030003208DF80200694610
:100FD000014800F034F908BD000C01407CB52448FC
:100FE000007810B1012840D12DE022480068FFF7B9
:100FF0008EFB21A2CDE900010021084600F084FD0E
:101000002148007808B121A000E022A000902348E8
:10101000038823A20221002000F076FD24480088E6
:1010200000902448038824A20421002000F06CFDD5
:101030002548008800902548038825A20621002025
:1010400000F062FD12E026A20021084600F05CFDDF
:1010500028A20221002000F057FD2A4803882AA276
:101060000421002000F050FD00E000BF00BF7CBD67
:10107000010000201C000020B5E7B3D8B5E7D1B9C6
:101080003A25322E316600001A000020CAD6B6AFCB
:1010900000000000D7D4B6AF000000002000002000
:1010A000CEC2B6C83A253364A1E6202025730000DD
:1010B0001400002012000020C9CF3A2534642020FB
:1010C000CFC23A253464000018000020160000202A
:1010D000D7F33A2534642020D3D23A253464000073
:1010E0002020C9E8D6C3D7D4B6AFD7B7B9E22020FD
:1010F000000000002020202020C1E9C3F4B6C82051
:10110000202020000C00002020202020202530332B
:1011100064202020200000000149C86070470000C2
:101120000020024030B5044604254FF4302000F082
:1011300073F80546042D17D10C48006940F00200F1
:101140000A49086108464461006940F040000861AE
:101150004FF4302000F060F805460448006941F67D
:10116000FD71084001490861284630BD0020024059
:1011700004200B49C96801F0010109B101200EE00A
:101180000749C96801F0040109B1022007E00449D8
:10119000C96801F0100109B1032000E00420704784
:1011A000002002400348006940F0800001490861C6
:1011B000704700000020024070B504460D4604262A
:1011C000F00200F029F80646042E11D10948006902
:1011D00040F00100074908612580F00200F01CF88A
:1011E00006460448006941F6FE710840014908615D
:1011F000304670BD0020024001460888704700005C
:101200000248034948600348486070472301674526
:1012100000200240AB89EFCD00B502460423FFF762
:10122000A7FF034603E0FFF7A3FF0346521E012B6F
:1012300001D1002AF7D102B90523184600BD2DE9D6
:10124000F04102460025002600200023002400274C
:1012500091F803C00CF00F0591F803C00CF0100CCE
:10126000BCF1000F03D091F802C04CEA050591F8DB
:1012700000C0BCF1000F31D0146800202BE04FF00B
:10128000010C0CFA00F3B1F800C00CEA03069E4210
:1012900020D183004FF00F0C0CFA03F7BC4305FA82
:1012A00003FC4CEA040491F803C0BCF1280F06D1FA
:1012B0004FF0010C0CFA00FCC2F814C00AE091F8DF
:1012C00003C0BCF1480F05D14FF0010C0CFA00FC33
:1012D000C2F810C0401C0828D1D31460B1F800C077
:1012E000BCF1FF0F34DD546800202EE000F1080C43
:1012F0004FF0010808FA0CF3B1F800C00CEA03063D
:101300009E4221D183004FF00F0C0CFA03F7BC432F
:1013100005FA03FC4CEA040491F803C0BCF1280F61
:1013200005D100F1080C08FA0CF8C2F8148091F805
:1013300003C0BCF1480F07D100F1080C4FF00108C1
:1013400008FA0CF8C2F81080401C0828CED354606C
:10135000BDE8F081F0B50A460023002400210025F5
:1013600000F00046B6F1004F02D11D4EF16901E0D8
:101370001B4E7168C0F3034583B200F44016B6F506
:10138000401F08D121F07061154E766826F0706616
:10139000134F7E6012E000F48016B6F5801F06D170
:1013A000032606FA05F4A14341F0706106E0460DFC
:1013B000360103FA06F6B14341F0706122B1460DE1
:1013C000360103FA06F6314300F00046B6F1004F4D
:1013D00002D1034EF16101E0014E7160F0BD0000E9
:1013E000000001400246002093680B400BB1012031
:1013F00000E00020704741617047016170470000C4
:101400002DE9F05F4548007801287CD10020434950
:1014100008704348408843490880414880884249D1
:1014200008803F48C088414908803D4800894049BC
:1014300008803B490888FFF72AF980464FF066325A
:101440003C4BFFF724F8064600223B4BFFF791F890
:10145000044600224FF08043FFF719F88246FFF759
:1014600081F936490860FFF78BFC0A2190FBF1F007
:10147000334908803348007800283AD12948008849
:1014800029490988401A00B22F4908802748008856
:1014900027490988401A00B22C4908802148008851
:1014A000C82811DA20480088C8280DDA1F480088AB
:1014B000C82809DA1E480088C82805DA58202449B7
:1014C00008802449088014E016490988164A1288C1
:1014D0001144164A12881144154A12888818FFF7D9
:1014E000C5F8044600221C4BFFF724F901D800F090
:1014F00085FC18480088FFF7B4F8044600F0A6FD04
:101500001348008800E006E0FFF7ABF8044600F05F
:10151000BBFDFFF763FDBDE8F09F00000600002063
:1015200048000020120000201400002016000020B7
:101530001800002066660A400000B0401C00002031
:10154000200000201A0000200E00002010000020C3
:101550000A0000200800002000208C4000BFFEE7A9
:1015600070B50446082517E004F0800028B14FF458
:1015700080710C48FFF741FF04E04FF48071094887
:10158000FFF739FF80210748FFF737FF8021054823
:10159000FFF731FF6006040E281EA5F10101CDB250
:1015A000E2D170BD000C014010B54FF480710648C7
:1015B000FFF723FF80210448FFF71FFF8021024827
:1015C000FFF719FF10BD0000000C014008B5012114
:1015D000082000F013FD4FF4C070ADF800000320A8
:1015E0008DF8020010208DF8030069460248FFF7CD
:1015F00026FE00F019FA08BD000C014010B54FF4AA
:1016000080710848FFF7F7FE80210648FFF7F5FED6
:1016100080210448FFF7EFFE7820FFF7A1FFFFF7D6
:10162000C3FF10BD000C014010B580210648FFF734
:10163000E4FE4FF480710448FFF7DDFE4FF4807143
:101640000148FFF7DAFE10BD000C014008B501218A
:10165000082000F0D3FC4FF47A40ADF80000482099
:101660008DF8030069460248FFF7E9FD08BD000058
:10167000000C014010B5044614B101204449087023
:101680004348007800285AD04FF400614148FFF7E2
:10169000A9FEE8B14FF480513E48FFF7A3FEB8B170
:1016A0004FF400513B48FFF79DFE88B14FF4804155
:1016B0003848FFF797FE58B14FF400413548FFF71F
:1016C00091FE28B14FF400713248FFF78BFEA8BBA2
:1016D0000A2001F099FC00202D4908704FF40061A8
:1016E0002C48FFF77FFE08B9012010BD4FF4805150
:1016F0002848FFF777FE08B90220F6E74FF40051BB
:101700002448FFF76FFE08B90320EEE74FF480414D
:101710002048FFF767FE08B90420E6E74FF40041D0
:101720001C48FFF75FFE08B90520DEE74FF40071A3
:101730001848FFF757FE48BB0620D6E7FFE74FF4EF
:1017400000611448FFF74EFE01281FD10103114824
:10175000FFF748FE012819D141030E48FFF742FE6A
:10176000012813D181030B48FFF73CFE01280DD15E
:10177000C1030848FFF736FE012807D1410205489A
:10178000FFF730FE012801D1014908700020ACE7C5
:1017900046000020000C014010B56848007828B9C8
:1017A0000020FFF767FF6649087004E00120FFF79B
:1017B00061FF6349087062480078072872D2DFE849
:1017C00000F097040E364A6B8E005E48007828B908
:1017D0005A48007880F001005849087089E059485B
:1017E000007810B101281FD116E054480078012874
:1017F00009D155480088BE280DDA53480088401C9E
:101800005149088007E04F48007810B901204D4940
:10181000087000F0E7F808E000204A49087000F07E
:1018200027FF00F0DFF800E000BF00BF61E045489F
:10183000007868B941480078012808D142480088FA
:101840000A2804DD40480088401E3F49088000E027
:1018500000BF00BF4DE03B48007810B1012818D10F
:101860000DE036480078012808D1384800888228E1
:1018700004DA36480088401C344908800AE03448BD
:1018800000880A2804DD324800880A383049088078
:1018900000E000BF00BF2CE02A48007818B1012802
:1018A0001AD10EE024E025480078012808D1274805
:1018B0000088282804DD25480088401E2349088028
:1018C0000BE023480088B0F5FA7F04DA204800884E
:1018D0000A301F49088000E000BF00BF09E01D4832
:1018E000006808B9012000E000201A49086000E003
:1018F00000BF00BF12480078F8B11048007810B956
:10190000FFF76CFB19E00E480078012803D00C4863
:101910000078062803D14FF4FA7001F075FB0A48ED
:101920000088FEF79EFE044600F090FB0748008802
:10193000FEF797FE044600F0A7FB10BD1A0000203A
:101940000000002001000020080000200A00002004
:101950000C000020A881214200BFFEE77047000074
:1019600070B5002100230F22C47804B3154C2468FD
:1019700004F4E064C4F5E064210AC1F10403CA4040
:10198000447804FA03F184781440214309010E4C91
:101990000678A155047804F01F050124AC400578B1
:1019A0006D11AD0005F1E025C5F8004109E00478AE
:1019B00004F01F050124AC40044D0678761145F86B
:1019C000264070BD0CED00E000E400E080E100E0A6
:1019D00002490143024A1160704700000000FA0505
:1019E0000CED00E010B5002000F001F810BD70B55E
:1019F0000646002415E004F1B001C8B200F015FE5F
:101A0000002000F012FE102000F00FFE002504E080
:101A1000304600F01BFE681CC5B2802DF8DB601C50
:101A2000C4B2082CE7DB70BD10B5642001F0ECFAFD
:101A3000AE2000F0FAFD202000F0F7FD102000F0AD
:101A4000F4FDB02000F0F1FDC82000F0EEFD002014
:101A500000F0EBFD102000F0E8FD402000F0E5FD77
:101A6000812000F0E2FDFF2000F0DFFDA12000F06A
:101A7000DCFDA62000F0D9FDA82000F0D6FD3F2017
:101A800000F0D3FDA42000F0D0FDD32000F0CDFD68
:101A9000002000F0CAFDD52000F0C7FDF02000F0C6
:101AA000C4FDD92000F0C1FD222000F0BEFDDA20E7
:101AB00000F0BBFD122000F0B8FDDB2000F0B5FD0A
:101AC000202000F0B2FD8D2000F0AFFD142000F0CA
:101AD000ACFDAF2000F0A9FDFFF784FF10BD70B58D
:101AE00004460D4605F1B001C8B200F09EFD10217C
:101AF00041EA141000F099FD04F00F0141F00100DB
:101B000000F093FD70BD00000FB42DE9F04387B0E5
:101B10000746884602AC11A80190112102A8019B3A
:101B2000109A00F0C5FD002001904FF0140954E018
:101B30002078802847DB00263DE006EB06102B4985
:101B400011F810002178884233D106EB061027499E
:101B500001EB40004078617888422AD141463846FE
:101B6000FFF7BDFF00250AE006EB06111F4A02EB56
:101B70004101891C485D00F069FD681CC5B2102D4B
:101B8000F2DB08F10100C1B23846FFF7A8FF0025DB
:101B90000CE006EB0611154A02EB4101891C05F128
:101BA0001002885C00F052FD681CC5B2102DF0DBFD
:101BB00003E0701CC6B24E45BFD300BFA41C07F1A2
:101BC0001000C7B209E0227802234146384600F0EF
:101BD0000FF807F10800C7B2641C20780028A7D1CD
:101BE00007B0BDE8F0035DF814FB000010310008F9
:101BF0002DE9F04707460E469046994600250024F9
:101C0000B9F1010F03D0B9F1020F46D11AE0A8F1E2
:101C10002000C5B27E2F02DD0027701CC6B23146FF
:101C20003846FFF75CFF002409E005EB45011C4A3C
:101C300002EB4101085D00F009FD601CC4B2062CF6
:101C4000F3DB2AE0A8F12000C5B2782F02DD0027DF
:101C5000701CC6B231463846FFF741FF002407E04A
:101C600004EB05110F4A505C00F0F0FC601CC4B29C
:101C7000082CF5DB701CC1B23846FFF730FF00249A
:101C800008E004EB05110831064A505C00F0DEFC68
:101C9000601CC4B2082CF4DB00BF00BFBDE8F087B5
:101CA000B8330008E035000800B589B001210846C6
:101CB00000F094F90121042000F0A0F918208DF81B
:101CC00023000220ADF8200003208DF8220008A98F
:101CD0001A48FFF7B4FA4FF0804000F030FB0020C4
:101CE000ADF81A00ADF8160044F61F60ADF8180004
:101CF0004720ADF8140000208DF81C0005A94FF016
:101D0000804000F0C3FB01A800F0B0FB7020ADF8EC
:101D100004000220ADF80C000120ADF80600002000
:101D2000ADF80A0001A94FF0804000F00FFB01213F
:101D3000880700F0DEFA09B000BD0000000801408D
:101D400000B589B00121022000F048F901210820E6
:101D500000F054F918208DF823000220ADF820007F
:101D600003208DF8220008A91848FFF768FA1848E0
:101D700000F0E5FA0020ADF81A00ADF8160044F6C0
:101D80001F60ADF818004720ADF8140000208DF852
:101D90001C0005A90E4800F079FB01A800F066FBC5
:101DA0007020ADF804000220ADF80C000120ADF861
:101DB00006000020ADF80A0001A9054800F018FB54
:101DC0000121034800F095FA09B000BD000C014064
:101DD0000004004010B5044621464FF0804000F05A
:101DE0004FFB10BD10B504462146024800F04AFBE7
:101DF00010BD0000000400407047000060480088EB
:101E000040426049B1F90010884206DC5D48B0F9F3
:101E100000005B490988884222DD5B4800885B49F5
:101E2000098888420BDD5A480088401E58490880BE
:101E300008460088282813DA2820088010E0524835
:101E400000885249098888420ADA51480088401CB3
:101E50004F49088008460088822801DD82200880DA
:101E60004748008840424B49B1F90010884206DCDF
:101E70004848B0F900004249098888427EDD46485A
:101E8000008846490988884239DD41480088582839
:101E90001ADA43480088401C4149088008460088F7
:101EA000BE286BDDBE2008803B4800883B4909887E
:101EB000411A33480088B1EB400F5FDD58203449A8
:101EC00008803749088059E035480088401E344969
:101ED0000880084600880A2850DA0A2008802E4820
:101EE00000882E490988411A25480088B1EB400F27
:101EF00044DD582026490880294908803EE02648CC
:101F0000008826490988884238DA214800885828FC
:101F10001ADA23480088401E2149088008460088B4
:101F20000A282BDA0A2008801C4800881A490988E8
:101F3000411A13480088B1EB400F1FDD58201449A7
:101F400008801749088019E015480088401C14498A
:101F5000088008460088BE2810DDBE2008800F4893
:101F600000880D490988411A05480088B1EB400FE7
:101F700004DD5820064908800949088070470000A0
:101F80000C0000200E000020120000201400002091
:101F90000A00002010000020160000201800002079
:101FA0000800002001460020034A506820F4404009
:101FB00008435060704700000010024029B1064AF3
:101FC00052690243044B5A6104E0034A5269824356
:101FD000014B5A61704700000010024029B1064AC7
:101FE000D2690243044BDA6104E0034AD2698243B6
:101FF000014BDA61704700000010024029B1064A27
:1020000092690243044B9A6104E0034A9269824355
:10201000014B9A61704700000010024070B5002427
:102020000748FFF7E9F8C5B2122D07D1A01CC4B2CA
:1020300003496018FFF7E0F80249088070BD00000E
:1020400000F001080C000020704700002DE9F0416D
:1020500004460A492046FEF735F980460849FEF74E
:10206000FFF807460749FEF7A3F80646FEF71CFBF4
:1020700085B22846FFF7AEFEBDE8F081000034438C
:102080000000FA440000FA432DE9F04104460A49F1
:102090002046FEF717F980460849FEF7E1F80746A3
:1020A0000749FEF785F80646FEF7FEFA85B2284690
:1020B000FFF798FEBDE8F081000034430000FA44C9
:1020C0000000FA4310B5FFF7EFFDFFF739FE10BD32
:1020D00010B500F001F810BD0CB500200190009083
:1020E0003348006840F480303149086000BF304810
:1020F000006800F4003000900198401C01900098A6
:1021000018B90198B0F5A06FF1D12948006800F422
:10211000003010B10120009001E0002000900098F4
:10212000012843D12348006840F01000214908608D
:102130000846006820F0030008600846006840F088
:10214000020008601A48406819494860084640681B
:1021500048600846406840F480604860084640682F
:1021600020F47C1048600846406840F4E81048605D
:102170000846006840F08070086000BF0C480068A6
:1021800000F000700028F9D00948406820F00300F2
:10219000074948600846406840F00200486000BFB8
:1021A0000348406800F00C000828F9D10CBD00007D
:1021B0000010024000200240042808D14FF0E02126
:1021C000096941F004014FF0E022116107E04FF08E
:1021D000E021096921F004014FF0E022116170470C
:1021E0007047000010B51348006840F00100114925
:1021F000086008464068104908400E494860084693
:1022000000680E4908400B4908600846006820F441
:10221000802008600846406820F4FE0048604FF4C3
:102220001F008860FFF754FF4FF00060044908600A
:1022300010BD0000001002400000FFF8FFFFF6FE96
:1022400008ED00E010B501210C4800F05EF8A0B1E7
:1022500001210A4800F04AF80948007868B909489D
:1022600001880088401C074A1080142905DB0120E2
:102270000349087000201146088010BD0008004086
:1022800006000020020000203EB505460C46012154
:102290000420FFF7A3FE00F019F8ADF80450ADF8E4
:1022A00000400020ADF80200ADF80600694606487F
:1022B00000F0ECF801221146034800F037F8012144
:1022C000014800F016F83EBD0008004008B51E2089
:1022D0008DF8000003208DF801008DF80200012028
:1022E0008DF803006846FFF73BFB08BDCA43028236
:1022F000704721B1028842F00102028004E00288A6
:102300004FF6FE731A400280704730B50246002037
:1023100000230024158A05EA0103958905EA0104D2
:1023200013B10CB1012000E0002030BD1AB1838947
:102330000B43838102E083898B438381704701894A
:102340004FF6F872114001817047000070B500240B
:1023500000220023058C4FF6EF7635400584028C71
:102360008388048B48F6FF752C404FF6FF452C40C0
:102370000D884FF6FF7606EA05252C434FF6DF75EC
:102380002A400D8906EA05152A434D8806EA0515F7
:102390002A43154DA84202D0144DA8421DD14FF634
:1023A0007F752A404D894FF6FF7606EA05152A43C8
:1023B0004FF6BF752A408D8806EA05152A434FF669
:1023C000FF352B404FF2FF752B408D8906EA8505BE
:1023D0002B43CD8906EA85052B4383800483CD8872
:1023E0000587028470BD0000002C014000340140CC
:1023F00070B5002200230024058C4EF6FF76354090
:102400000584038C8488828B48F6FF752A404FF63A
:10241000FF452A400D884FF6FF7606EA05252A4338
:102420004DF6FF752B400D8906EA05352B434D8887
:1024300006EA05352B430B4DA84202D00A4DA842AF
:1024400008D14BF6FF752C408D894FF6FF7606EAD2
:1024500085152C4384808283CD88A0F84050038466
:1024600070BD0000002C01400034014000210180BB
:1024700041808180C180018141818181C18170471A
:1024800001877047A0F840107047000000220288C2
:102490001D4B98420ED01D4B98420BD0B0F1804F8F
:1024A00008D01B4B984205D01A4B984202D01A4BC9
:1024B000984204D14FF68F731A404B881A43174B3A
:1024C000984207D0164B984204D04FF6FF431A406B
:1024D000CB881A4302808B8883850B8803850A4B3F
:1024E00098420BD0094B984208D00E4B984205D029
:1024F0000D4B984202D00D4B984201D10B7A0386C6
:102500000123838270470000002C01400034014009
:102510000004004000080040000C00400010004093
:1025200000140040004001400044014000480140C8
:1025300010B540F22551204800F046F8002839D067
:102540001D4800F06BF8C4B2242C02D100201B49B6
:1025500008801A4801880088401C184A10801848D2
:102560004454007824281ED1154800794D281AD1EA
:1025700013484079432816D10A2C14D15021114810
:10258000FDF70BFE0D4802880D490E48FDF7ECFDE6
:1025900001200C4981F85000002008490880C8211A
:1025A0000748FDF7FAFD05480088C82802DBC82067
:1025B0000249088010BD0000003801403E000020A4
:1025C000CB0000205200002070B5024600240023FA
:1025D0000025002040F66A16B14200D100BFC1F3C9
:1025E000421501F01F03012606FA03F3012D02D163
:1025F0009689334006E0022D02D1168A334001E06D
:10260000968A33400C12012606FA04F416883440E8
:1026100013B10CB1012000E0002070BD0146888894
:10262000C0F30800704700BFFEE710B50446FEF790
:10263000E5FF0020FEF794FFFEF7B6FF2046FEF709
:102640008FFFFEF7B1FFFEF7EFFF10BD10B5044698
:10265000FEF7D4FF4020FEF783FFFEF7A5FF2046DC
:10266000FEF77EFFFEF7A0FFFEF7DEFF10BD0000C5
:1026700010B50024FEF7C4FD3520FEF74DFD0A48D5
:10268000FEF750FD12210848FEF796FDA41C0649EE
:10269000601806490988FEF78FFD3520FEF73CFDDE
:1026A000FEF780FD10BD000000F001080C000020C6
:1026B0007CB5044600201D46164600290BD0491E55
:1026C000CDE90041044B6A462946304600F0D8F86F
:1026D000009A002111707CBDAF2F000802E008C8ED
:1026E000121F08C1002AFAD170477047002001E08C
:1026F00001C1121F002AFBD1704700002DE9FF5FC6
:1027000082B00021DDE90430020DDDF840B0034362
:1027100018D044F61050A2F2FF324243151411981B
:1027200001281FD0A5EB0B00401C5FEA000A4FF008
:1027300000064E4FDFF83891B046504615D5CAF125
:10274000000413E0119801244AA3012801D16FEA83
:102750000B010298119AC0E90031C0E9024206B0AB
:10276000BDE8F09FCBF10000DFE704460021404ABE
:10277000491842EB0450CDE9001012E0E00707D001
:1027800032463B4640464946FDF781FE8046894633
:1027900032463B4610461946FDF779FE06460F467F
:1027A0006410002CEAD1DDE90401DDE90023BAF16F
:1027B000000F06DAFDF76BFE42464B46FDF767FE5B
:1027C00005E0FDF7D6FE42464B46FDF7D2FE044635
:1027D0000E460022284BFDF7ADFF03D84FF0FF3027
:1027E000014607E00022254B20463146FDF7A8FDB3
:1027F000FEF7E0F8102409E0002C0ADB0A2200238F
:10280000FDF7E2FF039B30321A55641E50EA0102C5
:10281000F2D1641C039AC4F111031444119A012AE1
:1028200003D0012208430DD10AE0084304D0002060
:102830004FF0110B119072E7A3EB0B056D1E0DE02D
:102840005B4504DD4FF0000205F1010504E003DA09
:102850004FF00002A5F10105002AECD00298119971
:10286000C0E90231C0E9004579E7000000001440EA
:102870000000F03F300000000000F0430000E03FA7
:102880002DE9FF4F95B09B468946064600250FE28D
:10289000252877D100242746F84A0121059400E035
:1028A000044316F8013F203B01FA03F01042F7D130
:1028B00030782A2811D06FF02F033078A0F1300241
:1028C000092A16D8059A44F0020402EB820203EBAF
:1028D00042021044761C0590EFE759F8042B05924C
:1028E000002A03DA504244F40054059044F00204F4
:1028F000761C30782E2816D116F8010F44F0040407
:102900002A280DD06FF02F023078A0F13003092B68
:1029100009D807EB870302EB4303C718761CF3E7DC
:1029200059F8047B761C30786C280FD006DC4C28D4
:1029300017D068280DD06A2814D104E0742810D06C
:102940007A280FD10DE044F400140AE044F4801416
:1029500001E044F440147278824202D104F58014FC
:10296000761C761C307866280BD013DC582877D07C
:1029700009DC002875D04528F6D04628F4D0472831
:102980001AD19DE118E0632835D0642879D06528F4
:1029900012D195E1702873D008DC6728F1D069283E
:1029A0006FD06E280DD06F2806D1B5E073282CD0DB
:1029B000752875D0782874D05A46179990476D1CA1
:1029C00075E1C4F30250022809D003280DD0D9F8CC
:1029D000001004280DD00D6009F1040967E1D9F851
:1029E0000010EA17C1E90052F6E7D9F800100D808F
:1029F000F2E70D70F0E719F8041B8DF800100020C5
:102A00008DF80100EA46012003E059F804AB4FF0CD
:102A1000FF3061074FF0000102D40DE008F1010121
:102A20008846B9420FDA8045F8DB1AF80810002909
:102A3000F4D108E008F1010188468142FADB1AF876
:102A400008100029F6D105985B46A0EB080721463F
:102A50003846179A00F094FA284400EB080507E07E
:102A60004DE029E10DE01AF8010B5A4617999047FD
:102A7000B8F10108F7D25B4621463846179A13E1B0
:102A800042E00A220092C4F302524FF0000A022AE6
:102A900008D059F804CB032A4FEAEC710AD00DE0B4
:102AA00029E02AE009F1070121F00702F2E802C15A
:102AB000914609E00FFA8CFC4FEAEC71042A03D12D
:102AC0004FFA8CFC4FEAEC71002907DA0A46002124
:102AD000DCF1000C61EB02012D2202E0220504D59D
:102AE0002B228DF80420012203E0E20701D02022EE
:102AF000F7E7904659E00A2102E010220DE010218C
:102B00004FF0000A00910BE010224FF0000A44F051
:102B100004040827009203E008224FF0000A009204
:102B2000C4F30252022A05D059F804CB0021032A2B
:102B300008D009E009F1070121F00702F2E802C11B
:102B4000914605E01FFA8CFC042A01D10CF0FF0C21
:102B50004FF00008220728D5702806D0009B83F08C
:102B6000100353EA0A0305D00EE040228DF804203A
:102B7000012208E05CEA010206D030228DF8042030
:102B80008DF8050002229046009B83F0080353EA6B
:102B90000A030AD15CEA010201D1620705D530229D
:102BA0008DF804204FF001087F1E582804D034A06F
:102BB00003900EA802900DE036A0F9E75346604658
:102BC000009AFDF701FE84460398825C0298401E3D
:102BD000029002705CEA0100F0D1029806A9081A7E
:102BE00000F1200A600702D524F4803400E00127B8
:102BF000574502DDA7EB0A0000E0002000EB0A01C8
:102C0000009005984144401A0590E00306D45B46C5
:102C10002146179A059800F0B3F90544002706E00D
:102C200001A85A46C05D179990476D1C7F1C474507
:102C3000F6DBE0030CD55B462146179A059800F0B9
:102C40009FF9054404E030205A46179990476D1CBF
:102C50000099481E00900029F5DC08E002980299CE
:102C60005A460078491C0291179990476D1CBAF199
:102C70000001AAF1010AF1DC65E100000928010068
:102C800030313233343536373839616263646566E2
:102C900000000000303132333435363738394142A4
:102CA000434445460000000000F058F90544761CF6
:102CB000307800287FF4ECAD19B02846BDE8F08FDD
:102CC000620700D4062709F1070222F0070CFCE88E
:102CD0000223E14603F000485FEA080C02D00FF23D
:102CE000702C0DE05FEA045C02D50FF2682C07E05F
:102CF0005FEAC47C02D00FF2602C01E0AFF2700CEE
:102D00004FF0FF3823F00043CDF850C065280CD0B9
:102D100006DC452809D046281DD047283DD13DE096
:102D2000662818D067287ED138E00021112F01DBFA
:102D3000112000E0781CCDE9000106A90EA8FFF7DC
:102D4000DDFCDDE90F010E9A03910021009207F1ED
:102D5000010A04914DE04FF000400097CDE90110C9
:102D600006A90EA8FFF7CAFCDDE90F0203920E9B2D
:102D700011990022DDF80CA00093049211B9791C7E
:102D800000EB010AB7EB0A0004D4C0F1FF3007F1F1
:102D9000010A0490AAEB0700019044E0012F00DA39
:102DA00001270021112F01DD112000E03846CDE977
:102DB000000106A90EA8FFF7A1FCDDE90F010E9A9C
:102DC0000391002104910092BA4621070CD4039983
:102DD000514500DA8A46BAF1010F05DD009AAAF1E1
:102DE0000101515C302908D0B84202DA10F1040F19
:102DF00006DA0121CDE9011015E0AAF10101E9E7A8
:102E0000002805DC049901440491AAEB000102E0CA
:102E1000411C514500DD8A460499401A401C01902E
:102E20004FF000400290200704D40198504501DB88
:102E3000CDF8048000208DF84F0002980DF14F0767
:102E4000B0F1004F25D02B200E9002984FF00208D1
:102E500000280CDA404202902D200E9007E00A2153
:102E60000298FDF79BFC3031029007F8011DB8F184
:102E70000001A8F10108F2DC02980028EFD1791EC8
:102E80000E980870307800F0200040F0450007F8F8
:102E9000020D12A8C01B00F107081498007800B1B9
:102EA000012000EB0A01019801EBE0710598414413
:102EB000401A401E0590E00306D45B462146179A4F
:102EC000059800F05DF805441498007818B15A464A
:102ED000179990476D1CE00324D55B462146179A4D
:102EE000059800F04DF805441CE00498002807DB25
:102EF000DDE90301884203DD0098405C179901E099
:102F0000179930205A469047049805F10105401C56
:102F100004900198401E019004D12E205A46179922
:102F200090476D1CBAF10001AAF1010ADDDC05E051
:102F300017F8010B5A46179990476D1CB8F100011C
:102F4000A8F10108F4DC5B462146179A0598ABE628
:102F50002D0000002B000000200000002DE9F041B2
:102F6000044600251E461746880404D405E0394669
:102F70002020B0476D1C641EF9D52846BDE8F081BD
:102F80002DE9F041044600251E469046C80301D5B0
:102F9000302700E02027880404D505E04146384664
:102FA000B0476D1C641EF9D52846BDE8F0814A681B
:102FB000002A06D00A68531C0B6010704868401E37
:102FC0004860704710B56FF00400FFF7F5F80A4845
:102FD00000680A49B0FBF1F009490870084600781A
:102FE00000EB4001C1EBC0104FF6FF7101EAC000D9
:102FF0000449088010BD00002400002000127A005F
:10300000380000203A0000200146114A12884A4345
:103010004FF0E0235A6100229A611A46126942F089
:1030200001021A6100BF4FF0E022106900F00102B6
:103030001AB100F48032002AF5D04FF0E022126974
:1030400022F001024FF0E0231A6100229A617047DA
:103050003A0000200146114A12784A434FF0E0231B
:103060005A6100229A611A46126942F001021A61FD
:1030700000BF4FF0E022106900F001021AB100F425
:103080008032002AF5D04FF0E022126922F00102CE
:103090004FF0E0231A6100229A6170473800002047
:1030A0004FF4A060FEF794FC01211D20FEF7A6FF5F
:1030B00001211448FEF74EF9FFF784FFFEF7C6FA28
:1030C000FEF784FAFEF7FEFFFDF772FF00200E49BF
:1030D0000860FDF79BFEFDF7A3FC41F61F41312080
:1030E000FFF7D2F8FEF79AFFFDF778FF0748FEF7E3
:1030F000ADFF0648FEF7C8FF03E0FEF74DFBFEF705
:103100007FF9FAE700023000A88121420000B042B6
:10311000202000000000000000000000000000006F
:10312000000000000000000000000000000000009F
:103130000000B5E700F848484848FF48484848FCC0
:10314000080000000007020202023F4242424247DA
:1031500040700000B3D81022640C4040FC2020FFD7
:103160001010F81000000404FE0100003F40405F12
:10317000444847407000D1B90000FE02828282823A
:10318000FE828282C382000040300F4040404040B7
:103190007F4042444C604000CEC21022640C80004C
:1031A000FE9292929292FF0200000404FE01407E81
:1031B00042427E427E42427E4000B6C80000FC246D
:1031C0002424FCA5A6A4FC243426040040209F80CF
:1031D0004242262A122A264240C04000A1E60006AA
:1031E0000909E6F018080808183078000000000007
:1031F0000000070F18302020201008000000C9CF61
:1032000000000000000000FF20202030200000000F
:10321000404040404040407F40404040406040008F
:10322000CFC2020202020202FE0222428282020394
:103230000200000000000000FF000000000100008C
:103240000000D7F30808080888780F0808080888DD
:103250000C08000020504846414141417F41414116
:1032600041604000D3D208080808C8380F08080891
:103270000808880C080008040201FF41414141414F
:103280004141FF010000CAD600042424242424FC68
:103290002222223322000000020202020242827F26
:1032A0000202020202030200B6AF202424E4263404
:1032B000201010FF101010F81000081C0B08088ACE
:1032C0004C300C034080403F0000D7D4000000F891
:1032D000484C4A49484848FC08000000000000FFEC
:1032E00044444444444444FF00000000C9E84040D2
:1032F00042CC0040A09F8181819FA020200000003F
:10330000007FA09040432C10282641C04000D6C327
:10331000001017D55557557D555755D51710000036
:103320004040407F555555555555557F40604000AC
:10333000D7B7404244CC0000FC242625243E84001C
:1033400000000040201F20407F51515151515F61CA
:103350002000B9E24040424458C0407F40C050483D
:10336000466440000080402018070000003F4040B5
:1033700040407000C1E900222A2A2A2A2AEA2A2A81
:103380002A2A7F0200008080414226100C030C1084
:10339000242243C04000C3F42010FC17345414F618
:1033A00024D01F1010F81000011D13115395513F28
:1033B0009141360837C040000000000000000000C6
:1033C000002F000000000700070000147F147F1486
:1033D00000242A7F2A12006264081323003649550C
:1033E000225000000503000000001C2241000000E4
:1033F00041221C000014083E08140008083E08087A
:10340000000000A0600000080808080800006060D4
:103410000000002010080402003E5149453E000013
:10342000427F4000004261514946002141454B31F5
:10343000001814127F10002745454539003C4A49C1
:103440004930000171090503003649494936000633
:103450004949291E0000363600000000563600009B
:103460000008142241000014141414140000412216
:10347000140800020151090600324959513E007CEE
:103480001211127C007F49494936003E41414122D8
:10349000007F4141221C007F49494941007F0909C1
:1034A0000901003E4149497A007F0808087F000071
:1034B000417F4100002040413F01007F081422412C
:1034C000007F40404040007F020C027F007F0408E4
:1034D000107F003E4141413E007F09090906003E40
:1034E0004151215E007F0919294600464949493169
:1034F0000001017F0101003F4040403F001F20408C
:10350000201F003F4038403F006314081463000749
:103510000870080700615149454300007F414100A0
:1035200000552A552A55000041417F000004020140
:10353000020400404040404000000102040000201E
:1035400054545478007F484444380038444444205C
:1035500000384444487F00385454541800087E0909
:1035600001020018A4A4A47C007F080404780000D1
:10357000447D4000004080847D00007F102844008E
:103580000000417F4000007C04180478007C08049F
:10359000047800384444443800FC242424180018DB
:1035A000242418FC007C08040408004854545420C7
:1035B00000043F444020003C4040207C001C204050
:1035C000201C003C4030403C004428102844001C93
:1035D000A0A0A07C004464544C441414141414148B
:1035E00000000000000000000000000000000000DB
:1035F000000000F800000000000000333000000070
:1036000000100C06100C0600000000000000000076
:1036100040C07840C0784000043F04043F040400E8
:10362000007088FC08300000001820FF211E0000F8
:10363000F008F000E018000000211C031E211E000D
:1036400000F00888700000001E2123241927211093
:1036500010160E0000000000000000000000000036
:10366000000000E0180402000000000718204000DD
:1036700000020418E00000000040201807000000CD
:10368000404080F0804040000202010F0102020031
:10369000000000F0000000000101011F0101010015
:1036A000000000000000000080B07000000000007A
:1036B0000000000000000000000101010101010103
:1036C000000000000000000000303000000000009A
:1036D000000000008060180400601806010000006F
:1036E00000E010080810E000000F102020100F006C
:1036F000001010F8000000000020203F20200000F3
:10370000007008080888700000302824222130004A
:1037100000300888884830000018202020110E0052
:103720000000C02010F8000000070424243F2400FB
:1037300000F80888880808000019212020110E00D0
:1037400000E0108888180000000F112020110E00E2
:1037500000380808C83808000000003F00000000DA
:103760000070880808887000001C222121221C009B
:1037700000E010080810E0000000312222110F00C4
:10378000000000C0C0000000000000303000000059
:1037900000000080000000000000806000000000C9
:1037A00000008040201008000001020408102000E2
:1037B000404040404040400004040404040404002D
:1037C00000081020408000000020100804020100C2
:1037D000007048080808F0000000003036010000C2
:1037E000C030C828E810E0000718272423140B0075
:1037F0000000C038E0000000203C230202273820EF
:1038000008F8888888700000203F202020110E00D2
:10381000C0300808080838000718202020100800C9
:1038200008F808080810E000203F202020100F00B2
:1038300008F88888E8081000203F2020232018007E
:1038400008F88888E8081000203F200003000000E6
:10385000C03008080838000007182020221E020087
:1038600008F808000008F808203F210101213F2046
:10387000000808F8080800000020203F2020000071
:1038800000000808F8080800C08080807F00000061
:1038900008F888C028180800203F2001263820009A
:1038A00008F8080000000000203F20202020300001
:1038B00008F8F800F8F80800203F003F003F20001B
:1038C00008F830C00008F808203F200007183F0023
:1038D000E01008080810E0000F10202020100F0052
:1038E00008F808080808F000203F21010101000045
:1038F000E01008080810E0000F18242438504F008A
:1039000008F8888888887000203F2000030C302049
:1039100000708808080838000038202121221C0087
:10392000180808F8080818000000203F20000000D0
:1039300008F808000008F808001F202020201F00B9
:103940000878880000C83808000007380E01000019
:10395000F80800F80008F800033C0700073C0300E3
:10396000081868808068180820302C03032C302049
:103970000838C800C83808000000203F20000000B8
:1039800010080808C8380800203826212020180010
:10399000000000FE020202000000007F40404000E4
:1039A000000C30C000000000000000010638C0001C
:1039B00000020202FE000000004040407F000000C4
:1039C00000000402020204000000000000000000E9
:1039D00000000000000000008080808080808080E7
:1039E00000020204000000000000000000000000CF
:1039F00000008080808000000019242222223F20C5
:103A000008F8008080000000003F112020110E0007
:103A10000000008080800000000E11202020110096
:103A2000000000808088F800000E112020103F2048
:103A30000000808080800000001F222222221300CC
:103A4000008080F0888888180020203F2020000017
:103A50000000808080808000006B949494936000CC
:103A600008F8008080800000203F210000203F20D7
:103A700000809898000000000020203F20200000D7
:103A8000000000809898000000C08080807F0000C7
:103A900008F8000080808000203F24022D302000A4
:103AA000000808F8000000000020203F202000004F
:103AB0008080808080808000203F20003F20003F69
:103AC0008080008080800000203F210000203F2077
:103AD0000000808080800000001F202020201F0028
:103AE000808000808000000080FFA12020110E0057
:103AF0000000008080808000000E112020A0FF8048
:103B0000808080008080800020203F2120000100F4
:103B10000000808080808000003324242424190049
:103B2000008080E0808000000000001F2020000056
:103B30008080000000808000001F202020103F2097
:103B4000808080000080808000010E300806010027
:103B500080800080008080800F300C030C300F00CC
:103B600000808000808080000020312E0E312000F7
:103B7000808080000080808080818E701806010027
:103B800000808080808080000021302C2221300045
:103B900000000000807C020200000000003F404066
:103BA00000000000FF00000000000000FF00000017
:103BB0000002027C800000000040403F0000000046
:103BC00000060101020204040000000000000000E1
:103BD00000000C12120C00000000000000000000A9
:103BE000003C00080000002048000000DC2600081F
:103BF000483C00084800002050050000EC26000862
:103C0000000000000000000058005800C80000003C
:103C100000000000000000000000000000000000A4
:103C20000000000000A24A040000000000000000A4
:103C3000010203040607080900000000000000005C
:083C400000000000000001007B
:0400000508000145A9
:00000001FF
